:020000040000FA
:1004000018F09FE518F09FE518F09FE518F09FE5BC
:1004100018F09FE50000A0E118F09FE518F09FE5B7
:1004200054040000400400001CA303004804000022
:100430004C040000000000003CA403005004000035
:10044000FEFFFFEAFEFFFFEAFEFFFFEAFEFFFFEA14
:10045000FEFFFFEA0000A0E3150F07EE160F07EE00
:10046000100F11EE230CC0E38700C0E3020080E30D
:10047000010A80E3100F01EE60009FE560109FE528
:100480000030A0E3010050E10420903404208334C4
:10049000FBFFFF3A0000A0E3500F10EE44009FE581
:1004A000DBF021E300D0A0E1100040E2D7F021E32F
:1004B00000D0A0E1100040E2D1F021E300D0A0E1A3
:1004C000000040E2D2F021E300D0A0E1010C40E2C4
:1004D000D3F021E300D0A0E1010C40E260E700EAA4
:1004E0000004000054040000207E0600000000EB21
:1004F000760000EB2C008FE2000C90E800A08AE070
:1005000000B08BE001704AE20B005AE10000001AD3
:100510006E0000EB0F00BAE818E04FE2010013E3B1
:1005200003F0471013FF2FE1A0F80300D0F80300F9
:1005300001C08FE21CFF2FE18A18037801305C07AD
:10054000640F01D1047801301D1101D1057801300B
:10055000013C05D0067801300E700131013CF9D123
:100560001E0706D42E1C0ED0013E8C55FCD1491915
:1005700009E0047801300C1B0135267801340E7037
:100580000131013DF9D59142D7D37047102052E295
:100590007800B0287800A128FBFFFF8A822EB0E106
:1005A0003000B0283000A12800409045004081452F
:1005B0001EFF2FE10030B0E30040B0E30050B0E395
:1005C0000060B0E3102052E27800A128FCFFFF8A0F
:1005D000822EB0E13000A128003081451EFF2FE1BE
:1005E0006E0051E36FE0000A700051E348DC000A3E
:1005F000660051E36AE8000A650051E368E8000A12
:10060000670051E366E8000A610051E365E8000A0B
:10061000003090E52334B0E180108123690051E37C
:100620001EDC000A640051E31CDC000A750051E383
:100630001ADC000A6F0051E3DAE0000A780051E3A7
:10064000B1E7000AE90051E3B8E0000AE40051E331
:10065000B6E0000AF50051E3B4E0000AEF0051E310
:10066000ABE7000AF80051E3ABE7000A003090E581
:10067000A333B0E180108123630051E364E0000AFA
:10068000730051E3A6E7000AE30051E343E3000AE5
:10069000F30051E3A4E7000A0000B0E31EFF2FE1DE
:1006A0001FB50098019937F060FE37F0B0FA37F0C7
:1006B0003AEE04000020002139F072EF401C606027
:1006C0000020002139F090EFE0601FBD10B510BD93
:1006D000855900EB0210A0E1F0FFFFFA1CC09FE576
:1006E0000FC08CE001001CE30DE08F120FE0A001B1
:1006F0001CFF2FE101C08FE21CFF2FE139F064F9EC
:10070000218D000003002DE9EFFFFFFA0300BDE893
:10071000725900FA30B40C490C684A6823681068B2
:10072000C0181060241D121D8C4207D28A4208D2C4
:100730000C604A6030BC4000400870470C00DC3C54
:10074000F6E70A00DC3AF3E7EC29050000207047E1
:1007500010B500280CD0482211545030002909D07F
:10076000012903D0022907D003290AD0122010BD85
:10077000022010BDFEA100E0FEA137F0ABFA002080
:1007800010BDFEA1F9E7F8B5FF2507001D352800CB
:1007900016F07CFC040023D0290037F02AEC012558
:1007A000AD020026280016F071FC0028A06218D0C7
:1007B000290037F0FEEB00212000E562FFF7C8FFBB
:1007C00050202084711EE0200151A06A0122206384
:1007D000E01DF93041698761114341612000A6663F
:1007E000F8BD200016F05EFC0020F8BDF3B5040053
:1007F00081B018D0E16BA06B37F0DAEB0026E51D75
:10080000F9352000E6636F682421F03037F0F0EB13
:1008100001F079FA6F602700C0372860BE61029846
:10082000012802D02CE00220FEBD606A002802D020
:1008300016F038FC66622821200037F0DAEBE16A16
:10084000A06A37F0B6EB00212000FFF781FF5020AF
:100850002084A663E6636663A06A01212063686959
:100860000843686120003021603037F0C2EB386AFD
:10087000401C01D001206067803426616661A6615A
:100880000020FEBD002801D00121AFE70220704703
:1008900070B5002500280DD00400C034206A411C2A
:1008A0000AD001210CF01EFD206A0CF01FFD681E0D
:1008B000206202E0022500E00425280070BD70B52A
:1008C00004680500002C12D0606A002801D016F0E0
:1008D000E9FBA06A002801D016F0E4FB2000FFF736
:1008E000D7FF200016F0DEFB0020286070BD02203C
:1008F00070BDFFB581B00A9F040012D00398E26B6F
:10090000C519606BE36A2D1D80184119181A01235F
:10091000401B9B02994201D8002804DA032005B04D
:10092000F0BD0220FBE7A16B002908D0481937F081
:1009300032EA616B206B4018290037F03AEB616BAB
:10094000206B039A46180299300037F024EA039886
:100950003A0036183A20307020207070B61C049986
:10096000300037F018EAF0190D2101700A214170AA
:10097000606B401960630020D1E7F8B516000F00E6
:1009800004000ED0080037F0CBF90500300037F036
:10099000C7F9009033002A0039002000FFF7A9FFB3
:1009A000F8BD0220F8BDF7B5754984B003C90190C0
:1009B0000498160000250028029123D00400DC349E
:1009C000049800F047FF01281ED060680127C11776
:1009D000490F0918C91009198A1C4007400F3B002C
:1009E000897883401943117001A800906068A31CA6
:1009F000401C621C00210CF0B5FC002806DA002027
:100A0000306030E002252EE008252CE00028D7D009
:100A10006068C117490F0918C910091943074A78B6
:100A20005B0F9F403A420FD03268059900230CF0CB
:100A300089FC411C02D00025306014E00498C030CD
:100A4000006A01F041F90DE089783942B8D0C10857
:100A5000091943078A785B0F0120984082430020E0
:100A60008A7030600A25280007B0F0BDFFB5140079
:100A700005000C26002881B00AD0002020606060AC
:100A8000029837F04DF93F49884203D90D2632E0EC
:100A9000022630E00120800216F0F8FA07002CD080
:100AA0000121890237F084EA380037A137F012F9C2
:100AB0000299380037F062F9380034A137F05EF956
:100AC000049801281BD02A6B696B0A9810183A0009
:100AD00000F0D1FF2060380016F0E4FA206800280A
:100AE00009D0801C28A137F0A6F8002803D021687F
:100AF000401A00266060300011E703200FE7AA6B60
:100B0000E96BE2E73EB5040009D000200300009045
:100B1000200001AAFFF7AAFF050014D101E002207E
:100B20003EBD0198216B401A0299421A0198411862
:100B300037F030E9606B0299401A6063216B081846
:100B4000029937F036EA28003EBDF0B505000027CF
:100B500000288FB022D02E004036307A8842009094
:100B600004D02800FFF7F4FD002818D1307A0FE0F8
:100B700047455400504F5354000000005055540056
:100B8000C4A80300FD0300000D0A00003A000000A5
:100B9000EC1DF9340128707203D015E002200FB06B
:100BA000F0BD207E800705D52800FBA1FFF7AAFF36
:100BB0000028F4D1286F002805D02800FBA1FFF7FA
:100BC000A1FF0028EBD10127280050300E9037F00C
:100BD000A7F8401C0590002004900190029003901B
:100BE0000E9901A837F076F8F4A101A837F0C6F8FD
:100BF000280005AA01A9FFF7D6FE0028CFD1206959
:100C0000059940182061207E00060CD4E86905AAE9
:100C10000590A9692800FFF7C6FE0028BFD120690A
:100C200005994018206100200190029003900490E3
:100C3000E2A0008869468880E1A101A837F09EF80B
:100C4000E2A101A837F09AF801A837F069F80590F9
:100C5000280005AA01A9FFF7A6FE00289FD1206958
:100C6000059905AA40182061686B0590296B28003A
:100C7000FFF799FE002892D12069059905AA40182E
:100C80002061022005902800D0A1FFF78CFE0028EB
:100C900085D12169059A89182161327A00998A42A1
:100CA00004D02800FFF754FD00288BD1012F1ED15E
:100CB000217E890709D50720009011222800C4A3AE
:100CC000B5A1FFF716FE002898D1296F00290ED094
:100CD00006A800F0D3FF06A837F022F800900E22F5
:100CE000280006ABB1A1FFF704FE002886D1616998
:100CF00020221143616152E7F0B5040000208BB05F
:100D0000002C08900ED02500C035296AE61D491C2C
:100D1000F936002908D07069042108437061002069
:100D20000BB0F0BD0220FBE70020DD21287708553D
:100D3000DE2108550622012102200CF00FFB28625B
:100D4000401C09D0B069010618D4800606D5616937
:100D5000E068471A7F1E02E00420E1E7E768A06828
:100D60000022390000F04FFE0990A06808A900F0A9
:100D7000CEFFA068099A390000F045FE00270097D1
:100D800002970221684603970497059706970797ED
:100D9000417008980190307E000605D4208C020234
:100DA000000A024368464280A86A00280DD06846BF
:100DB0004174288D102201020004000E0143684690
:100DC0004182286A04A90CF089FA286A102269462F
:100DD0000CF090FA286A00F077FF002805D00B2865
:100DE00003D0732801D007209AE7EF62286AC11761
:100DF000490F0918C9100919DD3143070A785B0F3B
:100E00000120984002430A7085E7F0B50E00040007
:100E100085B00AD0080036F083FF05000121401C90
:100E20004902884203D9132079E5022077E5606AF8
:100E30000027002802D016F035F96762A81C16F0CA
:100E400025F9002860622BD02A00310036F0A2EF8D
:100E50000094606A00222B005FA100F0DFFD0028F3
:100E60006DD06268206816005CA100F099FD002832
:100E700065D000200090606A0323320059A100F081
:100E8000CDFD00285BD02700F61C08370097606A6C
:100E9000AB1B320054A100F0C1FD002802D00EE0CF
:100EA00003203CE5606A2F2141556D1C0097606A64
:100EB000AB1B32004CA100F0B1FD00283FD0E3682D
:100EC000200010309E190090606AF21A42A100F0D2
:100ED000A5FDE71DF937012826D1E1686069091AE7
:100EE0000A292CD221690F220918491C01A8216165
:100EF00036F050EF002101A8616105E06269521CE3
:100F0000626102782F2A06D00278002A0CD0401C99
:100F10000128F3D108E0017001A836F053FE2084C7
:100F2000B86920210843B861606A02218019A06174
:100F3000A81BE0617869084378610020EFE416207F
:100F4000EDE4FFB58BB0149F159E040009D000F0AE
:100F5000DAFEE51DF935002E286004D064204643F2
:100F600002E002201BE6214E20006E601699C03080
:100F70000A9081620C9836F0D3FE02000C99200092
:100F8000FFF743FF0028EDD1287E800630D4E068CB
:100F90000090A36831E000005472616E7366657260
:100FA0002D456E636F64696E67000000436F6E7459
:100FB000656E742D4C656E6774680000200000003B
:100FC000485454502F312E31000000000D0A00000B
:100FD0006368756E6B6564003A0000006874747035
:100FE000000000003A2F2F002F000000B80B000077
:100FF000A3682069C01A401E009004222000FDA1B1
:10100000FFF777FC0028ADD126004036307A022861
:101010000FD1002F0DD1287E800729D5F74B07204F
:1010200019000090112238392000FFF762FC0028D7
:1010300098D1322000900A222000F1A3FDA1FFF7F1
:1010400058FC00288ED1A869C1070BD0000609D42E
:101050000A20020000902000F9A3FCA1FFF749FC40
:10106000002890D1307A022804D0032802D024E04E
:101070000E2094E5012F20D10E982021206701A891
:1010800036F0B6EF0E9901A800F0F8FD01A836F091
:1010900047FEDA4900900E222439200001ABFFF709
:1010A00028FC0028E5D1212000900C222000EAA392
:1010B000F2A1FFF71EFC0028DBD1287E400709D5EE
:1010C000082000900D222000F0A3F3A1FFF711FCEF
:1010D0000028CED1200000F0BDFB012803D0606FB6
:1010E000002802D00DE0082059E50A98006A401C4B
:1010F00002D02000FFF7CCFB2000FFF7FDFD002809
:10110000B7D1317A2000FFF720FD0028B1D1317A24
:10111000022901D00329ACD1012FAAD10E980D9933
:101120000990200009AAFFF73EFC0028A1D16969B7
:1011300010221143696132E5F0B5002704003E003A
:1011400085B00028029709D0AC49A56B04220C3168
:10115000280000F025FC01287ED105E00226D4E01D
:101160000298401C6D1C02902878002801D020288D
:10117000F6D102980F2801D90F2200E00200291AA7
:101180002000803036F05EEF01206D1C400215F02B
:101190007DFF0028019006D00121490236F008EFBA
:1011A0000020029005E00320A6E40298401C6D1C7C
:1011B00002902878002801D02028F6D10298012733
:1011C0007F02B84201D93A0000E00200291A0198D2
:1011D00036F038EF019836F0F5FC0025E566A0669C
:1011E0000123200003AAB0A10095FFF73FFC0028CF
:1011F00010D10198390036F0DCEE019A0499039879
:1012000002AB029700F067FC002803D0019836F08B
:10121000D9FCE066012060670020009001232000D7
:1012200003AAA5A1FFF722FC002809D00020009006
:101230000123200003AAA3A1FFF718FC00281DD159
:101240000198390036F0B4EE019A0499039802AB84
:10125000029700F040FC00E04FE000280ED001981B
:1012600000229DA100F09CFB6067019800229DA1D7
:1012700000F096FB012801D100206067E51DF935DB
:10128000A869FF2101318843A86100200090012353
:10129000200003AA95A1FFF7E9FB002818D10198C7
:1012A000390036F086EE019A0499039802AB029752
:1012B00000F011FC00280BD050490198002200F0EA
:1012C0006FFB012804D1A869FF2101310843A861FF
:1012D000019815F0E7FEA06E0100FF392F3901D00B
:1012E000491C12D10020220000900123603220000E
:1012F00083A1FFF7BBFB002801D0172605E0206E75
:101300000C302066606E0C38606630008CE5FFB5EE
:101310007E4983B08868C96801900398160000254B
:101320000028029130D00400DC34039800F092FAD7
:1013300001282BD0A81C2DD060680122C117490FAD
:101340000918C910091940070B78400F170087408A
:101350003B430B706068C117490F0918C910091980
:101360004007400F8B78824013438B7001A8009098
:101370006068A31C401C002221000BF0F3FF002832
:1013800006DA00203060CCE00225CAE00825C8E07B
:101390000028CAD0A81C14D06068C117490F0918CA
:1013A000C9100A19470713787F0F0121B9400B4272
:1013B0001CD0C1084307625C5B0F01209840824348
:1013C0006254069832680028606810D0012304999E
:1013D0000BF0ACFF411C0BD0811C02D00028306008
:1013E00007D0606800F070FC682891E09CE092E013
:1013F00093E094E0486F737400000000D00F000089
:101400004D6F7A696C6C612F342E302028636F6DBC
:1014100070617469626C653B204D53494520352EDF
:10142000353B2057696E646F7773204E5420352EFC
:1014300030290000557365722D4167656E74000098
:101440004B6565702D416C6976650000436F6E6E6B
:10145000656374696F6E00006170706C69636174BC
:10146000696F6E2F782D7777772D666F726D2D757A
:10147000726C656E636F646564000000436F6E7428
:10148000656E742D54797065000000006E6F2D63D9
:10149000616368650000000043616368652D436F08
:1014A0006E74726F6C000000636F6E74656E742DE5
:1014B0006C656E6774680000636F6E6E6563746957
:1014C0006F6E000070726F78792D636F6E6E65635A
:1014D00074696F6E000000006B6565702D616C694A
:1014E00076650000636C6F73650000007472616E56
:1014F000736665722D656E636F64696E67000000C8
:101500006C6F636174696F6E00000000C4A8030013
:1015100005D0002505E0002359E7092501E07D25D8
:10152000ED00280007B0F0BD92780A4200D1FCE639
:10153000C108091943078A785B0F0120984082434C
:1015400000208A703060E8E7F8B50F00060000253B
:10155000002828D0F41DF934002F03D0380064216E
:101560004843606000213000FFF740F9002819D19E
:10157000300000F081F9002814D16069402108434F
:1015800060613000FFF7D8FD00280BD1616980222F
:1015900011436161B26EC82A07D0642A00D06D1C65
:1015A000002DD9D0F8BD0220F8BDFF220132114331
:1015B0006161F4E7002800D0C6E702207047FFB55C
:1015C0001E001700050091B00AD000F09CFBEC1D36
:1015D000F934002E206006D030006421484303E037
:1015E000022015B0F0BDEA486060207E800722D559
:1015F0004021684636F0FCEC3900684600F0D5FA28
:10160000E4A1684636F0BAFBA068002808D00220A2
:101610001090280010AADFA1FFF7C5F90028E0D13B
:10162000684636F07DFB1090280010AA6946FFF747
:10163000BAF90028D5D11299280010AA1097FFF7FF
:10164000B2F90028CDD1217E8907CAD5A168491CED
:10165000002FA160C5D102201090280010AACDA1B2
:10166000FFF7A1F90028BCD131002800FFF76CFF7B
:10167000B7E7FFB5040000201E00070081B0002C72
:1016800000900DD04820005D012860D000F03BFBA9
:10169000E51DF935002E286004D06420464302E0A1
:1016A00002204BE4BA4E6E6003980299401E0090EF
:1016B000002008700A990860287D000601D41420D3
:1016C0003CE4288B2600C036C005002812DAF06BF7
:1016D000002809D1200000F017F9002801D01520BA
:1016E0002CE4B06B002832D0F06B0099411A00292D
:1016F00000DC0090E06E002806D0716B009A8A181A
:10170000904201DC401A00900299002320006A46B2
:10171000FFF7FDFD01000A9A009800231060029A6D
:1017200012180029137010D1726B12187263E36ED5
:10173000002B02D09A4200D301272A8BD20502D572
:10174000F26B101AF063012F01D008002CE57D2008
:10175000C00029E570B50D00040012D01421280046
:1017600036F046ECA06E2860E01DF930C168696073
:10177000F4210959A960E16EE960406928610020FF
:1017800070BD022070BDFEB5040016000F000020E1
:10179000002C17D0616C002902D0A16B206C401A7C
:1017A0000090E16C0123200001AAFFF75FF90028F7
:1017B00007D102983168884206D93060002038701D
:1017C0000320FEBD0220FEBD0199002508780D28EA
:1017D00001D10125491C08780A2801D16D1C491C3A
:1017E0000298421B380036F02EEC02990020491B6B
:1017F00078540298401B3060029901984018206488
:10180000606C401C60640020FEBDF8B51E0017002F
:1018100004000D00002808D0080036F081FA0121EC
:101820008902884203D30D20F8BD0220F8BD0020B4
:101830006064E5642064320039002000FFF7A3FFF4
:10184000F8BD002804D000214164016408007047FD
:101850000220704710B504000AD000F054FAFF349B
:1018600001342168401A6168814203D8012010BD0B
:10187000022010BD002010BDF8B504000120002C8E
:10188000009003D0A06B002802D005E0022539E0CB
:10189000616B206B4018A0630126B602E26B616B9E
:1018A0000098E56A89180B18691A081AB34201D919
:1018B0000320F8BD002801DA032523E0A06B0023F4
:1018C0008718390020006A46FFF721FD050003D084
:1018D000082D17D00B2515E000980028FAD03B18EA
:1018E000E06B0422401CE0632000C030016B491C07
:1018F0000163181F28A136F0B2F9002802D0009821
:101900000028CBD12800F8BDF0B507000120002544
:1019100091B0002F10900BD000206C462070002357
:101920002100380010AAFFF7F2FC060002D02CE0DC
:1019300002261EE01098002827D02D18402801D933
:101940000F2616E0012D02D0022D07D103E02178E9
:101950000D29E4D002E021780A29E0D024180222DF
:10196000A01E0CA136F07BF9002805D010980028A5
:10197000D5D1300011B0F0BD00202070684600F0D5
:10198000E2F8C037B863F863F3E70026F1E7000038
:10199000B80B00000D0A00000D0A0D0A000000003F
:1019A000F8B5050017000C000026080036F0B8F95D
:1019B000002F009003D1280036F0B2F907000098FC
:1019C000B84216D11AE0002F01D0BE4219D02878B3
:1019D00021780200403A1A2A02D820300006000E70
:1019E0000A00403A1A2A02D820310906090E884214
:1019F00001D00020F8BD6D1C641C761C280020431B
:101A0000E1D10120F8BD002807D0002A01D04254BE
:101A100002E0425C0023435410007047F8B51E00FA
:101A20008418A05D069F002500902000A55536F083
:101A300002F9002801D0051B6D1C0098002DA0554F
:101A400005D0002F01D06D1E30C70120F8BD002049
:101A5000F8BD70B50C00050036F062F906002000F4
:101A600036F05EF9864200DD3000020021002800D9
:101A7000FFF796FF70BDF7B5160007000025019827
:101A8000854226D2307835F07AFD0100380036F0F4
:101A9000C7F80400307835F065FD0100380036F0F5
:101AA000BFF8002C01D1040013D0002802D0A042BE
:101AB00000D20400300036F033F90200310020007B
:101AC000FFF76EFF002801D02000FEBD671C6D1CD3
:101AD000D5E70020FEBDFFB50E0000241F00250045
:101AE0003A2181B036F09CF8401C2AD0020008E070
:101AF000202900D0641C002E01D0B54208D8521C09
:101B00006D1C1178002903D00D2901D00A29EFD1CD
:101B100039683C60A14202D2002005B0F0BD00222D
:101B200005E0202902D0039B9954521C401C0178E7
:101B3000002903D00D2901D00A29F2D103980021F0
:101B400081540398E9E7F8B5002426000700350022
:101B500035F0E0EB00900168385D095C8906490FBB
:101B60001BD035F00CFD0106090E5829395507D058
:101B7000009898220068405C104204D0373903E096
:101B800000252E0009E030390F2900D90F21280146
:101B9000451800D0761C082E05D0641C385D00283E
:101BA00001D00098D7E72800F8BD10B500290BA395
:101BB00001D01C2205E0302101700021417010BDD0
:101BC000121F0C00D4402407FAD00C00D440240784
:101BD000240F1C5D0470401C121FF6E730313233B5
:101BE0003435363738396162636465660000000059
:101BF000C00901D0002070470120704700B50100E6
:101C0000FFF7F6FF002805DD08006138192801D824
:101C1000413000BD080000BD00B50100FFF7E8FF3E
:101C2000002805DD08004138192801D8613000BDC1
:101C3000080000BD00B50100FFF7DAFF002808DD4D
:101C400008006138192802D92030192801D8080065
:101C500000BD002000BD00B50200FFF7C9FF00284D
:101C60000ADD1000FFF7E6FF002803DC1000303823
:101C7000092801D8100000BD002000BD70B5040087
:101C80000A1E04DA2D2055422070641C01E00D006C
:101C900005E0641C0A21100036F07AEA0200002AEE
:101CA000F7D10020207007E00A21280037F0DAEE93
:101CB0003031641E05002170002DF5D1200070BD6B
:101CC00010B50BF00FFB10BD10B50DF000FD002896
:101CD00001D0006910BD0020C04310BD10B508F050
:101CE0003DFC35F07DFF10BD10B5FEF713FD38F05B
:101CF000E0EC1E22D24338F094ED042238F090ED4F
:101D000038F09EEC10BD10B508F028FC10BDF3B5FE
:101D1000002683B00398340037003500009635F074
:101D2000FFFF029024E00398855D280030380928E1
:101D300002D92E2D0FD01DE02E2D0CD0032C03DD4B
:101D40000098401C009015E001A8055500210019DD
:101D5000641C41700AE000247F1C01A835F032FFAA
:101D6000FF210131884224DC032F22DC0298761CFB
:101D70008642D8DD0098054301D1032F10D0401CC6
:101D800000900028039816DD0BF0F6FA002805D025
:101D900000690068016804980160012005B0F0BD89
:101DA00001A835F00FFFFF210131884201DC0098C6
:101DB000E7E70020F2E713F0A8FC04990860ECE7DD
:101DC0000FB4F0B58FB020200C901D9D00260001AF
:101DD00015F05CF907000FD00121490236F0E8E860
:101DE0001E98002800D01F9829000D901498FEF727
:101DF000AFFC040066D105E003200FB0F0BC08BCC6
:101E000004B018470021022D0ED0032D0CD0002065
:101E10000090019102910D9B1E9A15991498FFF75D
:101E200090F804004ED101E00120F1E714981E2142
:101E3000FFF7C0FB040045D1202103A836F0D8E805
:101E400014980CAB03AA8AA1FFF7DFFC002801D08D
:101E50000E2437E08AA103A835F0EDFE401C35F0D2
:101E6000B1FE0200209B1498002198471498FFF7B8
:101E7000E8FC01220BA85202FF23009014982D3396
:101E800039000B92FFF7F5FB040003D07D20C00062
:101E9000844215D10B9815F0F9F805001FD00B9A64
:101EA000390035F078EF209B0B9A14982900984759
:101EB0000B983618002CDCD07D20C0008442D8D18D
:101EC000002F02D0380015F0EDF81498002802D049
:101ED00014A8FEF7F4FC1998012802D006E00324A8
:101EE000EEE7B20A210067A035F066FB200084E728
:101EF0006F4E8AB03068002209A914F005FE099CD3
:101F00002420236B005DE26AA16A089305AB07C336
:101F1000210014221031684636F010E820000FC866
:101F2000FFF74EFF0500010062A035F045FB002DD4
:101F300009D07D20C000854205D0626B002A02D006
:101F4000206829009047A06A002801D015F0AAF85F
:101F50006068002801D015F0A5F8200015F0A2F85F
:101F6000C8E71FB55248202114F06BFD002803D0AC
:101F70000020C04304B010BD554A00212423029222
:101F8000FF220093514801320B000191039107F0A9
:101F9000C3FF0020EEE770B50500382015F076F895
:101FA000040014D0382136F024E83822290020001B
:101FB00035F0C4EFE86A00280BD015F067F8002868
:101FC000A06241D0EA6AA96A35F0E4EE03E003209A
:101FD00070BD0020A0626868002810D035F0A0FE17
:101FE0000600401C15F052F80028606027D0711CD4
:101FF00035F0DEEF69686068320035F0CCEE002025
:10200000FEF7C1FB0028286022D02060284821006C
:10201000006814F063FD06000FD02800FEF74FFCA7
:10202000A06A002801D015F03DF86068002801D0B2
:1020300015F038F8200015F035F8300070BDA06AB2
:10204000002801D015F02EF8200015F02BF8BEE77F
:10205000A06A002801D015F025F86068002801D09A
:1020600015F020F8200015F01DF8022070BD0000CA
:10207000636F6E74656E742D6C656E6774680000B6
:102080003A0000000A0A4854545020436C69656EB7
:1020900074207465726D696E6174656420256420B6
:1020A00028676F74202564206B62290A0A000000EB
:1020B00024FF0300687474705F636C69656E745FFD
:1020C0007278207265743D25640A0000F11E0000DC
:1020D00090120400FE480078704710B5FD490400D6
:1020E000062235F058EEFC490422A01D35F052EED0
:1020F000F7480078002801D04220A071002010BDD0
:1021000010B5002801D00AF031F9002010BD10B53B
:10211000002801D00AF02EF9002010BDEC4908700B
:10212000704708B500220420694624F0C2FB6846C7
:10213000007808BDE9487047E54948707047E448B1
:102140004078704770B500268AB032000520694695
:10215000099624F0AEFB68460078E04C2070684693
:102160004078002819D000206070684640886D468D
:10217000608001A835F0D4FD0200607800280ED000
:10218000002A08D0291D201D35F0D8EED349281D7E
:10219000263115F028FB0AB070BD0120E4E7207855
:1021A0000028F8D1291D09A815F000FA002800DA46
:1021B00009960998E062EEE710B50AF036FE10BD08
:1021C0007CB5C348007800282AD10024C44B0A21DA
:1021D0000093220020002300019407F0ABFDBC49CE
:1021E000091D0028086001D0002100E0012100291C
:1021F00016D10025060001950AF05DFF040010D0FD
:1022000008F0ACF902000021300001AB009507F0A6
:10221000F9FC0198012803D1012C01D108F074F8D0
:102220007CBD08F092F902000023190030000095EF
:1022300007F0E8FC7CBD002010B5C04324F027FC6B
:1022400010BD10B524F045FC10BD10B50400007899
:10225000022812D86378012B0FD8012803D0022856
:102260000DD1012B27D161689E4A6439914204D275
:10227000A1687D22D200914201D2042010BD002825
:1022800004D0012811D0022815D019E0FFF749FF2A
:10229000002801D0052010BD6078002803D0002060
:1022A00020F0A9F90CE00120FAE7A26861681800A3
:1022B00020F0AEF904E0A2686168180020F0C3F9CC
:1022C000002010BD70B5050004F0F9F804002034BA
:1022D0006079002801D0082070BD01206071A571CF
:1022E00022F0B9FC021D0021002A03D0401C03D0BB
:1022F000002070BD6171EEE70620617170BD70B5A0
:102300000500432014F0C2FE040019D0432135F02B
:1023100050EE01222100022024F0CBFA20004030B0
:102320004178402269700178A97080782100287076
:10233000E81C35F030ED200014F0B4FE002070BD34
:102340000020C04370BD10B504008AB001220020F7
:10235000694624F0AEFA0898202804D9002069467E
:102360002070087006E00206120E601C694622709A
:1023700035F010ED00200AB010BD1CB504000DD0E2
:1023800000220620694624F094FA00A906220231B0
:10239000200035F000ED68460078A07100201CBDDB
:1023A00030B543208BB014F071FE040012D04321ED
:1023B00035F0FEED6846FFF7E0FF684680790028BB
:1023C0000CD02000FFF79BFFA278E11C684622F0AA
:1023D0004BFF10E00020C0430BB030BD02A8FFF758
:1023E000B2FF2000FFF78BFF6846017AA378E21C5A
:1023F000093022F0FFFE0500200014F053FE2800F3
:10240000EAE7010010B50022142024F052FA00205F
:1024100010BD10B5040086B000220320694624F0E8
:1024200048FA0422200001A935F0B4EC0422201D52
:1024300002A935F0B0EC20000422083003A935F0E1
:10244000AAEC200004220C3004A935F0A4EC684664
:102450000078002804D000202074002006B010BDB1
:102460000120F9E770B50D000400010000220720EB
:1024700024F01FFA00222900082024F01AFA2978F3
:10248000002901D101212170002070BD010010B58B
:102490000022012024F00DFA002010BD70B5652047
:1024A00090B014F0F3FD04004BD0282014F0EEFDA2
:1024B000050048D06846FFF746FF69460A78491C80
:1024C000200035F068EC69460978002060540BE084
:1024D00028FF0300D5A90300D1A90300901604002A
:1024E000B92100008503000020002030FFF7CEFF57
:1024F000200021300EA9FFF7B5FF20002230FFF7A2
:10250000FEFE09A8FFF785FF0422280009A935F07F
:1025100042EC0422281D0AA935F03CEC28000830C2
:10252000FFF76FFF2900200022F01EFF0606360E7F
:10253000200014F0B7FD280014F0B4FD300010B0F6
:1025400070BD0620FBE7200014F0ACFDF9E7002089
:102550007047010010B501220A2024F0AAF90020DA
:1025600010BD38B5040003F0AAFF2030C17900295E
:1025700001D0082038BD01210472C1716846FFF7FF
:10258000E8FF68460078002806D0012807D0022816
:1025900007D00020C04338BDFFF702FF38BD002040
:1025A00038BDFFF77BFF38BD08B503F088FFFF217A
:1025B0006A46117000212030C1710020694622F066
:1025C00058FF6A461078012807D1032010701100C7
:1025D000012022F04EFF002802D122F044FF00200B
:1025E00008BD70B5040014F0D1F80500FE4840782D
:1025F000002800D00120207504222900200035F099
:10260000CAEB0422291D201D35F0C4EB290020004F
:1026100004220831083035F0BEEB290020000422E6
:102620000C310C3035F0B6EB2900200004221031BB
:10263000103035F0B0EB002070BD0020C043704773
:1026400008B5002806D0012804D0022802D00020B6
:10265000C04308BD6A4610700A000A20694624F08B
:1026600010F8002008BD10B50C0001788AB02029B0
:1026700002D90020C0437EE608910278411C6846DA
:1026800035F088EB22000020694623F0FAFF002095
:1026900071E6F3B50F000025402089B014F0F6FC78
:1026A000002808900AD0402135F082EC089909985A
:1026B000402222F05AFF089C00261FE00020C04361
:1026C0000BB0F0BD200014F008F900281FD0C3782B
:1026D000827841780078079304AB07C36379227945
:1026E000E178A07803936B4607C363782278781962
:1026F000BEA134F06FFF4519A41D761C099800682F
:10270000B042DFD8089814F0CDFC0020D8E76379F8
:102710002279E178A07803936B4607C36378227827
:102720007819BDA134F056FFE5E770B50E0004003E
:10273000C11C92B04022684635F02CEB207810A9DD
:102740003200887060784870A0780870022069466E
:1027500023F097FF6D464022E11C280035F01AEB6C
:10276000A078320029001090262023F08AFF6C46C2
:102770002121200035F01CEC01222100252023F02E
:1027800080FF002012B070BD13B592B010A8007A7F
:102790000C0000280DD14021684635F02AEC0020BD
:1027A00010A988704870087022000220694623F042
:1027B00068FF2200012012A923F063FF002014B05B
:1027C00010BD1CB50C0001784278C37811438278A3
:1027D0001A431143027911434279114305D0002174
:1027E000002904D00020C0431CBD0121F8E78179F5
:1027F0006A461170010000A80622023035F0CAEACC
:1028000022000620694623F03CFF00201CBD10B5C5
:10281000040001000122272024F04BF8206A202820
:1028200002D9002020622070002010BD010010B5E8
:102830000122262024F03DF8002010BD13B50A0027
:102840001320694623F01DFF00201CBD010010B5B8
:102850000022132024F02DF8002010BD37B5684663
:10286000007814000E2802D90020C0433EBD072086
:10287000694623F006FF2200082001A923F001FF8A
:1028800000203EBD13B50A002220694623F0F9FE60
:1028900000201CBD010010B50122222024F009F8FF
:1028A000002010BD13B50A000920694623F0E9FE97
:1028B00000201CBD010010B50022092023F0F9FF03
:1028C000002010BD38B503780024E443022B04D85F
:1028D000012B04D14278032A01D9200038BD6A4671
:1028E0001370407850700A000E20694623F0C9FE2C
:1028F000002038BD38B5040000220E20694623F0C0
:10290000D8FF6846007820706846407860700020E4
:1029100038BD13B50A000B20694623F0B2FE002033
:102920001CBD010010B500220B2023F0C2FF0020C7
:1029300010BD13B50A001620694623F0A2FE002040
:102940001CBD010010B50122162023F0B2FF0020AB
:1029500010BD13B50A000C20694623F092FE00203A
:102960001CBD010010B500220C2023F0A2FF0020A6
:1029700010BD0020C04370470020C0437047F3B52E
:10298000040089B013F002FF050024F088F901006B
:1029900020000C30061F0029079020D1207C002841
:1029A00069D013F020FF04222100280035F0F2E95D
:1029B0002800079904220C3035F0ECE90422211D8F
:1029C000281D35F0E8E9280008300422310007000E
:1029D00035F0E0E93A00291D280013F00CFF207CB7
:1029E000002857D0002029E028FF03002C25303292
:1029F000582D253032582D253032582D253032585B
:102A00002D253032582D253032582C25642E256442
:102A10002E25642E256400002C253032582D2530BB
:102A200032582D253032582D253032582D25303250
:102A3000582D253032582C2D0000000069460870B2
:102A40000799042204A835F0A6E90422310003A85E
:102A500035F0A0E90422210001A835F09CE9042208
:102A6000211D02A835F096E90A9A0320694623F051
:102A700008FE002024E600220A2006A923F019FF00
:102A80006846007E002802D00020C04318E613F0FC
:102A90009AFEA4E70120A6E738B50C00002804D070
:102AA000012804D00020C04338BD012000E00020F0
:102AB000694608702200042023F0E3FD220028204C
:102AC000694623F0DEFD002038BD38B50400002241
:102AD0000420694623F0EDFE68460078002803D004
:102AE00000202070002038BD0120FAE7010010B559
:102AF00001220F2023F0DDFE002010BD13B50A00D7
:102B00000F20694623F0BDFD00201CBDF0B5E84D47
:102B10000F00040089B024F0C2F826000C3600280B
:102B200012D1207A31002870607A687060896880DC
:102B30002C20005DA884A088E884E0882885281DD2
:102B400035F0C8F82068E862607A002812D00020CA
:102B500069464870207A087060894880310001A871
:102B600035F0B8F83A000520694623F08AFD0020C8
:102B700009B0F0BD0120EBE770B5CD4C0500207821
:102B80002C2128726078687260886881A08C485512
:102B90002800211D0C3035F09DF8E08CA880208D98
:102BA000E880E06A2860002070BD1CB504000022A7
:102BB0001A20694623F07DFE0098002120606846B7
:102BC0008079E06068464079A06068460079002816
:102BD00001D0012801D0616001E0022060606846F8
:102BE000C079022801D0216101E00120206100208C
:102BF0001CBDB048C0687047FEB5040000200F003F
:102C0000029003F05CFC206808F0DEFE002813DB75
:102C10002069002802D001280ED101E0032500E040
:102C20000225E068012807D8A068022804D8606857
:102C3000002803D0022803D00420FEBD002600E0B7
:102C400001269C48C168002901D002A88847029843
:102C5000002804D024F023F8002802D00AE0052040
:102C6000FEBD216802980161217A4175217B817541
:102C7000C6750575206869460090207B3A0088710A
:102C8000207A48710E711A20CD7123F0FAFC0028C9
:102C9000E6D00720FEBD10B5040003F010FC808DC7
:102CA0002080002010BD13B50C0003F008FC69461D
:102CB0000B88814A19002039914202D30020C04379
:102CC0001CBDC36222001020694623F0DAFC0020FC
:102CD0001CBD70B5040003F0F2FB050000222100CA
:102CE0001C2023F0E6FD20882863002070BD10B56D
:102CF000002806D00A000100142023F0C2FC0020A6
:102D000010BD0020C04310BD13B50C0003F0D7FB6D
:102D100069460B8869498B4202D90020C0431CBD1B
:102D2000036322001C20694623F0ABFC00201CBD7D
:102D3000010010B500221D2023F0BBFD002010BDB6
:102D400013B50C0003F0BBFB694609782030220064
:102D500001761D20694623F094FC00201CBD010073
:102D600010B500221E2023F0A4FD002010BD13B5D5
:102D70000A001E20694623F084FC00201CBD0100CF
:102D800010B500221F2023F094FD002010BD13B5C4
:102D90000A001F20694623F074FC00201CBD0100BE
:102DA00010B50022202023F084FD002010BD13B5B3
:102DB0000A002020694623F064FC00201CBD10B5E9
:102DC00006F081FA002010BD10B5040006F0A5F849
:102DD0002070002010BD0A00010010B5252023F04E
:102DE00050FC002010BD010010B50122252023F069
:102DF00060FD002010BD010010B50022212023F04D
:102E000058FD002010BD0A00010010B5212023F05C
:102E100038FC002010BD010010B501220D2023F068
:102E200048FD002010BD13B50A000D20694623F0AF
:102E300028FC00201CBD13B50A002320694623F09E
:102E400020FC00201CBD010010B50022232023F02F
:102E500030FD002010BD0020704710B50400006850
:102E6000210082006068083186B009F02FFB18212C
:102E7000684635F0BEE860681822694609F0A4FA91
:102E8000002006B010BD0B49C860704709490861B1
:102E9000704708480069704706494861704705480F
:102EA00040697047034988607047024880687047EE
:102EB0009016040028FF0300E10300001027000023
:102EC0000A78222A02D0016000207047491C016064
:102ED00000E0491C0878002804D02228F9D10020FD
:102EE0000870F1E7012070474A4210B5F6A134F0AE
:102EF00071FB10BD10B5F6A134F06CFB10BD70B5C0
:102F000014000D00060003F0DAFAB16B002902D1BB
:102F1000F168002904D003212800FFF7E5FF0AE04B
:102F20002030017D002901D0002100E00121017540
:102F30002800FFF7DFFF2060002070BDF8B50D000E
:102F4000816B1400002902D1C068002801D0032140
:102F50001DE0FFF74EFE010001D06846884700984B
:102F6000002813D0FFF795FF010001D00220884709
:102F70000098007909F0B6FF009808F032FE009B37
:102F8000596AC8690005820E002006E00521280064
:102F9000FFF7AAFF0FE00E6B401C9042FBDB986D21
:102FA000D865180008F023FE0098007909F092FF18
:102FB0002800FFF79FFF20600020F8BD70B50D00CE
:102FC000816B1400002902D1C068002806D00321BB
:102FD0002800FFF789FF2060002070BDFFF7F0F8A0
:102FE0002800FFF787FFF6E7F0B50400C06815007A
:102FF0000E00012885B002D1A06B042801D0032166
:103000003DE02069694614F0D2FB002836D10098D3
:10301000022833D869460871606914F0C8FB00289B
:103020002CD10098012829D86946487108790128CF
:1030300001D002281CD1A06914F0B9FB00281DD1D1
:1030400000987D27FF00B84218D80A2816D300043C
:10305000000C0290E069694614F0A9FB00280DD12C
:103060009C490098884209D8B84207D30840039089
:1030700001A8FFF7EAF8010001D104E004213000C3
:10308000FFF732FF02E03000FFF734FF2860002036
:1030900005B0F0BD70B50D00816B1400002902D1A0
:1030A000C068002801D0032104E0FFF7CAF8002817
:1030B00004D007212800FFF717FF02E02800FFF7E0
:1030C00019FF2060002070BD70B50D00816B1400E9
:1030D000002902D1C068002801D0032104E0FFF7D5
:1030E000AAF8002804D007212800FFF7FDFE02E01F
:1030F0002800FFF7FFFE2060002070BD10B5806B38
:1031000014000B00002806D073490422180034F084
:1031100042EE042006E070490322091F180034F033
:103120003AEE03202060002010BDF7B51500060020
:103130008AB003F0C4F900902C2013F0A7FF04001C
:1031400010D02B2013F0A2FF070011D02C2120005B
:1031500034F02EEF2B21380034F02AEFB06B00282A
:103160000DD00FE00B980621FFF7BEFE2860A8E007
:103170000B980621FFF7B8FE286020009FE0F0685A
:10318000002801D00321C5E0200020300021079055
:103190000890C1722036307F2100FFF7E2F901006C
:1031A0000898C07A012802D0002936D0B2E0207AEF
:1031B000002800D001206179A279E37903AE0EC620
:1031C0000690A078E17822796B4607C3637822786D
:1031D0000B9842A134F0FEF90B99002600900818D4
:1031E000019007E0A019827A019846A1801934F075
:1031F000F1F9761C607AB042F4DC01060098090E01
:1032000008182860617A0198081807998A7A3EA1FF
:1032100034F0E0F9296808184CE000980021C069F2
:1032200003F098F8002874D1FEF789FF002870D0C9
:10323000380022F03CF906223900200034F0AAEDD3
:103240003E002036307AB91DA071707A2072B079B4
:1032500060722000B2790A3034F09CEDF079E071B0
:10326000B27A07998A72217A002900D00121A279C5
:1032700063790691049203930590A078E17822790E
:103280006B4607C3637822780B9814A134F0A2F937
:103290000B99002600900818019007E0A019827A87
:1032A000019818A1801934F095F9761C607AB04223
:1032B000F4DCA2E72860200013F0F4FE380013F0DD
:1032C000F1FE00200DB0F0BD2B4552523D256400AB
:1032D0002B4F4B00FFFF0000D8A803002B4F4B3DA6
:1032E00025303278253032782530327825303278E2
:1032F00025303278253032782C25642C25642C2515
:10330000642C220025630000222C2575000000009B
:10331000FFE70A210B98FFF7E7FDCBE770B50D003B
:10332000816B1400002902D1C068002801D003215C
:1033300004E0FFF739F9002806D007212800FFF73D
:10334000D3FD2060002070BD2800FFF7D3FDF8E713
:10335000F8B514000F00050003F0B1F80600A86BE3
:10336000002813D1E868002810D12035287FFEF707
:10337000A9FF010003D03800FFF7B6FD08E0FF21E8
:10338000F069F53102F0E6FF002801D00321F2E7F1
:1033900020600020F8BD70B50D00816B140000297D
:1033A0009AB004D1C268002A06D0032A04D00321AF
:1033B0002800FFF799FD32E013A8FFF712F918A8CB
:1033C0000278002A2FD010A8C67F837F417F007F1C
:1033D00012960FAE0BC610A8C67E837E417E007E7D
:1033E0000E960BAE0BC610A8C67D837D417D007D79
:1033F0000A9607AE0BC610A8C67C837C417C007C75
:10340000069603AE0BC610AEF37BB17B707B0293C6
:1034100001910090337BFE49280034F0DBF82060F6
:1034200000201AB070BD2800FAA134F0D3F8F6E7F6
:10343000FEB50E0000210091816B140000290BD114
:10344000C068002801D0032806D101A8FFF781F841
:1034500068460079022801D0032119E001277F0284
:10346000380013F013FE050011D0390034F0A0ED40
:1034700029006846FFF70DF9009A2B003000E7A1FC
:1034800034F0A8F82060280013F00CFE04E00621B8
:103490003000FFF729FD20600020FEBDF7B50400D5
:1034A000002090B015000E9003F009F80600E068C7
:1034B000012801D00321B5E0A06B042801D0052824
:1034C000F8D1302101A834F094ED20690DA914F051
:1034D0006EF900287ED10D9801287BD869460873C3
:1034E00060690DA914F063F9002873D10D980128C3
:1034F00070D8000624D0002168464173E269A069B3
:10350000171A7F1E202F65DC00291ED00DA914F08C
:103510006AF9002816D0A1690EA8FFF7D1FC0E9811
:1035200009F02AFF002855D000690422016802A88A
:1035300034F030ECA1693A0004A834F02CEC15E02A
:103540000121D9E70D980290F4E76946097B00292B
:103550000CD10178002909D00DA914F028F9002810
:1035600067D1B1490D98884263D80190E0690DA9EF
:1035700014F01DF900285CD1AC490D98884258D848
:10358000A16B042901D1002853D06946C88108A93C
:103590000F74A06B052819D1206A0DA914F007F942
:1035A000002846D1A1490D98884242D86946097B36
:1035B000002903D16946497B002919D0002838D059
:1035C0006946C989002934D0694648862034217F5C
:1035D00001A800E02DE003F0AEFD0400401E13281A
:1035E0001DD89349F06902F0B5FE002815D104E01A
:1035F0000028E5D06946C881E6E72006000E0022D3
:10360000694603F05EFC68460078002805D01198F2
:10361000220088A133F0DEFF07E00D2102E0002C3C
:10362000FBD10B211198FFF75FFC2860002013B03D
:1036300049E60421F6E7F7B5816B1500002701295B
:1036400088B002D1C168012901D0042121E00069BC
:1036500007A914F0ACF8002814D10798142811D841
:1036600006064024360E200013F010FD07000FD090
:10367000210034F0BEEC22003900300003F01DFCC4
:1036800000280BD009980421FFF72EFC286033E0B6
:1036900006210998FFF728FC286032E0099867A105
:1036A00033F098FF3C1D0026286022E0207802F0CD
:1036B00008FF002804D081880089081AC005C00DC1
:1036C00061892289A3790591049203930690E07899
:1036D000217962796B4607C32968099863780818CD
:1036E000227858A133F076FF29680C344018761CF4
:1036F00028603868B042D9D8002F02D0380013F0C3
:10370000D1FC00200BB0DEE538B50D00816B140054
:10371000012902D1C168012901D0032110E000690B
:10372000694614F044F8002809D10098411E132975
:1037300005D80006000E03F03DFD002804D004214A
:103740002800FFF7D1FB03E04649280033F042FF91
:103750002060002038BD38B50D00816B14000129B0
:1037600002D1C168012901D0032110E00069694636
:1037700014F01DF8002809D10098411E132905D81E
:103780000006000E03F024FD002804D004212800C8
:10379000FFF7AAFB02E02800FFF7ACFB2060002047
:1037A00038BDF7B5002605003700340084B002F0BC
:1037B00086FE0290E868012802D1A86B022801D099
:1037C000032154E02869694613F0F1FF00280BD16A
:1037D0000098142808D8002806D0070068696946B0
:1037E00013F0E5FF002801D0012605E0009C012030
:1037F0008002844200D904003D062D0E28000022DC
:1038000001A903F05EFB002E30D1684600792BE061
:10381000F4A803002B4F4B3D257500002B4F4B3D6B
:10382000257525730000000080969800FFFF0000BA
:10383000C40900002B4F4B3D256400002B4F4B3D2E
:103840000000000025642C25642C2225642E2564AC
:103850002E25642E2564222C25642C25642C2564B9
:103860000D0A0000D0320000022806D0042105987D
:10387000FFF73AFB0699086020E0FF49059822000F
:1038800033F0A8FE06990860280003F0A1FC029816
:103890002030407A022811D1FFF701FB020003D04B
:1038A0002004000C00219047FF20F53004F0D6FDE5
:1038B000FFF7EFFA010001D004208847002007B08D
:1038C00001E5F7B505000026C0683700340001287F
:1038D00082B002D1A86B022801D0032126E028691A
:1038E000694613F064FF00280BD10098142808D80B
:1038F000002806D007006869694613F058FF0028C1
:1039000001D0012605E0009C01208002844200D9FC
:1039100004003806000E002201A903F0D2FA002E9E
:1039200003D168460079022804D004210398FFF7E8
:10393000DBFA05E0039823003A00D0A133F04AFEF9
:1039400004990860002005B0BDE4F8B515000F002B
:10395000060002F0B4FD0400F068032803D0B16B48
:10396000012909D106E02034627F3800C5A133F077
:1039700031FE13E0012804D004213800FFF7B4FA27
:103980000CE03069694613F012FF0028F4D100986A
:103990002034012860773800FFF7ACFA2860002057
:1039A000F8BD7CB5C06814000D00032806D00221C4
:1039B0002800FFF799FA206000207CBD09F0E3FCA5
:1039C000010E0202120E01910104009202060B0E7A
:1039D000120E2800ADA133F0FDFD2060002009F09B
:1039E000CFFCE9E73EB50D0000210291C16814004B
:1039F000012901D002211BE0816B012917D1016946
:103A000002A8FFF75DFA029809F0B6FC00280ED074
:103A1000006900688178C278009101924378027849
:103A200028009AA133F0D6FD206000203EBD04217D
:103A30002800FFF759FAF7E7FEB50400806B150080
:103A40000F00002601280CD1206901A913F0AFFE58
:103A5000002802D10198032801D9042118E0694601
:103A60000870E068022806D0012809D003280BD08E
:103A7000002809D017E0A06B012814D101260BE023
:103A8000A06B012808D00EE0A06B002811D00AE03E
:103A90003800FFF729FA17E0684600783100FEF792
:103AA000CFFD002801D00321F2E73800FFF722FA0A
:103AB0000AE06846FEF74DFD0028F4D1684602781A
:103AC0006D49380033F086FD28600020FEBDF0B55A
:103AD0000500806B14000E00002701288BB016D162
:103AE000296909A8FFF7ECF9002801D0042125E095
:103AF000099834F015F90206120E68460270501E3D
:103B00002028F3D200A80999013034F044E9E8688C
:103B1000022806D0012809D003280BD0002809D09C
:103B200020E0A86B01281DD101270BE0A86B01281C
:103B300008D017E0A86B00280FD013E03000FFF783
:103B4000D3F908E039006846FEF78DFD002809D159
:103B50003000FFF7CFF920601EE06846FEF7F3FB68
:103B6000002801D00321E9E743493000283133F030
:103B700031FD00256F4620600AE078194278206800
:103B800046A1801933F026FD216840186D1C206085
:103B900068460078A842F0DC0020B3E5F7B50400E1
:103BA000C0681500002694B002286F4606D0012890
:103BB00009D003280BD0002809D041E0A06B0328CE
:103BC0003ED1012607E0A06B032804D038E0A06BAB
:103BD00000283BD034E0216911A813F0E7FC00284D
:103BE00023D11198012820D869460870616911A86D
:103BF00013F0DCFC002818D11198042815D8694668
:103C00004870A16912A8FFF75BF90400129834F01C
:103C100087F80206120E6946402A8A7005D8129962
:103C2000F81C34F0B8E8002C04D004211598FFF7F4
:103C30005BF93DE031006846FEF777FD002801D0D2
:103C40000321F3E71598FFF755F931E03800FEF747
:103C500056FB0028F4D1684643780278159810A1E5
:103C600033F0B8FC0400684682781598F91C0019F6
:103C700034F090E8684619E01438000025642C25DB
:103C8000640000002B4F4B3D25640A002B4F4B3D39
:103C900025642E25642E25642E25640025630000EE
:103CA0002B4F4B3D25752C25752C00008078001975
:103CB0002860002017B0F0BDFEB50400806B150031
:103CC0000F00002601280CD1206901A913F06FFD17
:103CD000002802D10198082801D9042118E069467A
:103CE0000870E068022806D0012809D003280BD00C
:103CF000002809D017E0A06B012814D101260BE0A1
:103D0000A06B012808D00EE0A06B002811D00AE0BB
:103D10003800FFF7E9F817E0684600783100FEF751
:103D200033FD002801D00321F2E73800FFF7E2F865
:103D30000AE06846FEF7AAFB0028F4D1684602783C
:103D4000FA49380033F046FC28600020FEBDF7B584
:103D50000400002088B000900390E068160002285C
:103D600002D0012808D00AE0A06B012801D0022867
:103D700054D1012000900CE0A16B012909D0A16B66
:103D8000022906D0032801D0002847D100294BD0B2
:103D900044E0206907A913F00AFD002833D10798F1
:103DA000012830D80006000E6946887602D1A16B42
:103DB000022928D001282BD1A06B012823D06169CA
:103DC000A069401A401E0C2802901CD100252F002B
:103DD0006069405D13F0AAFC01906169681C085C91
:103DE00013F0A4FC019900290DDB00280BDB09016D
:103DF000014305A8C1550298AD1C7F1C8542E7DB35
:103E00000398002804D004210998FFF76DF829E0F1
:103E1000009905A8FEF7D5FC002801D00321F3E79F
:103E20000998FFF767F81DE005A8FEF7A6FA002835
:103E3000F4D16846827E002A10D00400A47D437E1F
:103E4000017EC07D019402AC0BC46C46607DB8A1BC
:103E50000090237D099833F0BDFB03E0B349099836
:103E600033F0B8FB306000204CE4FEB50400806BFA
:103E700015000F00002601280CD1206901A913F0BC
:103E800096FC002802D10198012801D9042118E0EC
:103E900069460870E068022806D0012809D0032886
:103EA0000BD0002809D017E0A06B012814D10126FF
:103EB0000BE0A06B012808D00EE0A06B002811D009
:103EC0000AE03800FFF710F817E068460078310084
:103ED000FEF7B4FC002801D00321F2E73800FFF719
:103EE00009F80AE06846FEF7B1FC0028F4D16846FC
:103EF00002788E49380033F06DFB28600020FEBD4B
:103F0000F0B5A1B000250E0007001400242118A868
:103F10000595069534F06CE8442107A834F068E86C
:103F2000F868002801D0032810D1B86B00280DD103
:103F300005A8FEF722FA002808D16846807E0028EE
:103F400019D007A8FEF772FC002804D00321300026
:103F5000FEF7CAFF3DE06D46A87DE97D6B7E2A7EB7
:103F600001AF0FC7687D7AA100902B7DAA7E30003B
:103F700033F030FB24E018A8FEF749FC07A8FEF751
:103F800055FC0028E2D16846827E300079A133F0EA
:103F900021FB18AF206009E020687A5D801977A1C5
:103FA00033F018FB216840186D1C20602098A8424F
:103FB000F2D8206872A1801933F00CFB21684018F8
:103FC0002060179A801907A933F0E4EE206817994A
:103FD00040182060002021B0F0BDFEB50400C0688C
:103FE00015000F000026022806D001280BD0032858
:103FF0000FD000280DD041E0A06B012801D002288D
:104000003CD1012609E0A06B012806D0022804D08B
:1040100034E0A06B002837D030E0206902A913F00B
:10402000C6FB002825D10298012822D80006000EE0
:104030006946087002D1A16B01291AD8002806D060
:10404000606902A913F0B3FB002812D101E001203E
:1040500004E002980E280CD800280AD0694608719E
:104060006846017800793200FEF7F8FB002805D198
:1040700006E004213800FEF737FF19E00321F9E7D5
:104080003800FEF737FF13E0694601A8FEF7EAF9AA
:104090000028F3D168460278002A05D00379380059
:1040A00038A133F097FA03E02049380033F092FA50
:1040B00028600020FEBDFEB50400806B15000F00D7
:1040C000002601280CD1216901A813F0A5FA0028C7
:1040D00010D10198810B0DD100280BD069460880C2
:1040E000E068022808D001280BD003280DD0002852
:1040F0000BD019E004210CE0A06B012814D101269B
:104100000BE0A06B012808D00EE0A06B002843D084
:104110000AE03800FEF7E8FE49E068460088310012
:10412000FEF7B0FB002833D00321F2E7143800007B
:104130002B4F4B3D25752C25303278253032782594
:104140003032782530327825303278253032780098
:104150002B4F4B3D25752C25303278253032782574
:104160003032782530327825303278253032782C4C
:10417000000000002B4F4B3D25752C0025630000EF
:104180002C0000002B4F4B3D25752C2575000000A1
:104190003800FEF7AFFE0AE06846FEF77BFB00281A
:1041A000C2D1684602883800F7A133F013FA2860BC
:1041B0000020FEBDFEB50400806B15000F00002638
:1041C00001280AD1206901A913F0F1FA002801D0D1
:1041D000042119E0019869460880E068022806D0A9
:1041E000012809D003280BD0002809D017E0A06BC4
:1041F000012814D101260BE0A06B012808D00EE0A5
:10420000A06B002811D00AE03800FEF76DFE17E021
:10421000684600883100FEF745FB002801D00321E5
:10422000F2E73800FEF766FE0AE06846FEF742FB5A
:104230000028F4D168460288D649380033F0CAF91C
:1042400028600020FEBDFEB50400C06815000F0008
:104250000026022806D0012809D003280BD0002808
:1042600009D038E0A06B022835D1012607E0A06B09
:10427000022804D02FE0A06B002832D02BE0206968
:1042800001A913F094FA002808D101986946087032
:10429000606901A913F08BFA002804D004213800CA
:1042A000FEF722FE29E06846007801280FD0022898
:1042B0000FD00B200199814200D808006946487050
:1042C00031006846FEF7FEFA002804D105E003201D
:1042D000F0E71C20EEE70321E1E73800FEF70AFED5
:1042E0000BE06846FEF706FB0028F4D168464378E9
:1042F0000278A949380033F06DF928600020FEBD2E
:10430000FEB50400806B15000F00002601280CD1BB
:10431000206901A913F04BFA002802D10198012865
:1043200001D9042118E069460870E068022806D027
:10433000012809D003280BD0002809D017E0A06B72
:10434000012814D101260BE0A06B012808D00EE053
:10435000A06B002811D00AE03800FEF7C5FD17E079
:10436000684600783100FEF7D4FA002801D0032116
:10437000F2E73800FEF7BEFD0AE06846FEF7D1FA24
:104380000028F4D1684602788249380033F022F9D7
:1043900028600020FEBDFEB50400806B15000F00F4
:1043A000002601280CD1206901A913F000FA002889
:1043B00002D10198012801D9042118E0694608704A
:1043C000E068022806D0012809D003280BD0002875
:1043D00009D017E0A06B012814D101260BE0A06BD7
:1043E000012808D00EE0A06B002811D00AE03800A8
:1043F000FEF77AFD17E0684600783100FEF799FA7B
:10440000002801D00321F2E73800FEF773FD0AE02F
:104410006846FEF796FA0028F4D1684602785D49AE
:10442000380033F0D7F828600020FEBDFEB5040048
:10443000806B15000F00002601280CD1206901A90E
:1044400013F0B5F9002802D10198012801D90421FF
:1044500018E069460870E068022806D0012809D0F3
:1044600003280BD0002809D017E0A06B012814D135
:1044700001260BE0A06B012808D00EE0A06B0028FD
:1044800011D00AE03800FEF72FFD17E068460078EB
:104490003100FEF75EFA002801D00321F2E7380070
:1044A000FEF728FD0AE06846FEF75BFA0028F4D123
:1044B000684602783749380033F08CF828600020CD
:1044C000FEBDFEB50400806B15000F00002601281C
:1044D0000CD1216901A813F069F8002802D10198D4
:1044E000FF2801D9042118E069460870E068022815
:1044F00006D0012809D003280BD0002809D017E0E6
:10450000A06B012814D101260BE0A06B012808D074
:104510000EE0A06B002811D00AE03800FEF7E4FCA2
:1045200018E0684600783100FEF77DFC002801D0D5
:104530000321F2E73800FEF7DDFC0BE06846FEF7EA
:104540006AFC0028F4D1134968460278203138000B
:1045500033F040F828600020FEBDF0B50400C068CC
:1045600015000F000026022897B006D0012805D0BC
:10457000032813D0002811D072E00126A06B012877
:1045800010D005280ED05EE02B4F4B3D25303478FF
:10459000000000001438000084410000A06B0028D7
:1045A00064D05DE0206914A913F001F900284AD114
:1045B0001498012847D80106090E10A80173A06BB2
:1045C00001280AD005280BD0012843D0616915A81D
:1045D000FEF776FC002836D105E0002933D139E01A
:1045E000012930D1F2E7159814A913F0FCF800283E
:1045F00029D114980F90A16915A8FEF761FC002835
:1046000021D1159814A913F0EEF800281BD11498A5
:104610001090E16915A8FEF753FC002813D11598F6
:1046200014A913F0E0F800280DD114981190216A14
:1046300015A8FEF745FC002805D1159814A913F01C
:10464000D2F8002804D004213800FEF74DFC32E0F7
:104650001498129031000FA8FEF791F9002801D0AC
:104660000321F1E73800FEF745FC24E00FA8FDF731
:10467000D0FE0028F4D110AC207A617AE37AA27AD5
:104680000BAE0FC620796179E379A27907AE0FC628
:1046900020786178E378A27803AE0FC608AC607F1B
:1046A000A17FE27F6B4607C3237F10AC227B3800DB
:1046B000FCA132F08FFF2860002017B0F0BDFEB5DE
:1046C0000400806B15000F00002601280CD1206922
:1046D00001A913F06CF8002802D10198012801D932
:1046E000042123E069460870E06802280ED0012802
:1046F00011D0032801D00028F2D1A06B0028EFD1FF
:104700006846FEF7E2F900280FD117E0A06B0128F8
:10471000E6D1012602E0A06B0128E1D168460078CD
:104720003100FEF7B9F9002804D003213800FEF764
:10473000DBFB09E03800FEF7DDFB05E068460278A8
:10474000E649380032F046FF28600020FEBDF0B593
:104750000E000500C0688FB01400002703A90228CE
:104760000E9107D001280AD0032842D0002840D05B
:1047700004217CE0A86B0428FAD1012702E0A86B91
:104780000428F5D13021684633F032EC28690CA9B1
:1047900013F00DF80028EBD10C980128E8D86946F1
:1047A000087268690CA913F002F80028E0D10C988F
:1047B0000128DDD800063AD0002069464872A96970
:1047C0000DA8FEF77DFB0028D2D10D9833F0A8FA92
:1047D0000006000E08A920280873C9D86846407A48
:1047E00000282DD00D980CA912F0FDFF002820D034
:1047F00021E0A86B0028BBD13021684633F0F8EBEC
:104800006846FEF7B9F96846407A002846D000238A
:1048100069460A7AB249300032F0DCFE694620600F
:10482000497A00293CD00E9A8019AEA13FE00120C0
:10483000C3E70C9801900D990E9833F04BFA03E002
:104840006846007A002816D0E8690CA912F0AFFF7C
:1048500000288DD1A5490C98884289D8694648819D
:1048600039006846FEF752F9002810D003213000C5
:10487000FEF73AFB0EE00D980CA912F098FF002805
:1048800089D19B490C98884288D80090D3E73000A2
:10489000FEF730FB206000200FB0F0BD0123B7E72A
:1048A0006946097A002907D1009A801991A132F04E
:1048B00091FE2168401820606846428920688EA1D8
:1048C000801932F087FE21684018E3E710B5806B4D
:1048D00014000B00002806D088490422180033F089
:1048E0005AEA042006E085490322091F180033F024
:1048F00052EA03202060002010BDFEB50400806B4A
:1049000015000F00002601280CD1206901A912F022
:104910004EFF002802D10198032801D9042118E094
:1049200069460870E068022806D0012809D00328EB
:104930000BD0002809D017E0A06B012814D1012664
:104940000BE0A06B012808D00EE0A06B002811D06E
:104950000AE03800FEF7C8FA17E068460078310030
:10496000FEF7CCF8002801D00321F2E73800FEF76B
:10497000C1FA0AE06846FEF7B9F80028F4D16846A3
:1049800002785649380032F025FE28600020FEBD2E
:10499000F0B50400C06815000F000026022889B099
:1049A00006D001280BD003280FD000280DD051E0ED
:1049B000A06B042801D005284CD1012609E0A06B8A
:1049C000042806D0052804D044E0A06B00283CD081
:1049D00040E0206908A912F0EAFE002824D10898D6
:1049E00008A90390606912F0E2FE00281CD1089823
:1049F00008A90790A06912F0DAFE002814D10898DF
:104A000008A90490E06912F0D2FE00280CD10898A1
:104A10000590A06B052801D000200BE0206A08A9B2
:104A200012F0C5FE002804D004213800FEF75CFA1D
:104A30001CE008983100069003A8FEF7DDF801009D
:104A4000F3D13800FEF756FA10E003A8FEF7ADF8F0
:104A5000002801D00321E8E704A807C86B4607C374
:104A6000079B039A380026A132F0B4FD286000208D
:104A700009B0F0BDFEB50400806B15000F000026E4
:104A8000012849D1206901A912F091FE002806D120
:104A9000019801218902884201D820283AD20421B4
:104AA00051E000002B4F4B3D25752C25752E2575AB
:104AB0002E25752E25752C25752E25752E25752EE2
:104AC00025752C25752E25752E25752E25752C25DD
:104AD000752E25752E25752E2575000014380000BD
:104AE000A03C00002225732200000000FFFF000010
:104AF00080969800256400002C257500D8A8030036
:104B00002B4F4B3D25752C25752C25752C25752C8B
:104B10002575000069460880E068022806D0012853
:104B200009D003280BD0002809D017E0A06B01287A
:104B300014D101260BE0A06B012808D00EE0A06B79
:104B4000002811D00AE03800FEF7CEF917E06846D9
:104B500000883100FEF7A7F8002801D00321F2E712
:104B60003800FEF7C7F90AE06846FEF794F8002817
:104B7000F4D168460288FE49380032F02BFD2860E7
:104B80000020FEBDF7B500258AB00895C168140065
:104B90002E00022906D0012909D003290BD00029B3
:104BA00009D029E0816B012926D1012507E0816B1D
:104BB000012904D020E0806B002828D01CE0016986
:104BC00008A8FEF77DF90990089833F0A9F80704C2
:104BD00009983F0C002811DC1F2F0FD8002F0DD093
:104BE00008993A00684633F0D6E868462900C65569
:104BF000FEF77DF8002806D0032100E004210B9881
:104C0000FEF772F90DE00B98FEF774F909E06846BB
:104C1000FDF7F7FB0028EFD10B986A46D5A132F0DB
:104C2000D9FC206000200DB0F0BD10B5806B1400E1
:104C30000B00002806D0D2490422180033F0AAE85D
:104C4000042006E0CE490322091F180033F0A2E831
:104C500003202060002010BD10B5806B14000B00F5
:104C6000002806D0C6490422180033F094E8042036
:104C700006E0C3490322091F180033F08CE8032023
:104C80002060002010BD10B5806B14000B000028C0
:104C900006D0BB490422180033F07CE8042006E06B
:104CA000B7490322091F180033F074E8032020607D
:104CB000002010BDFEB50400806B15000F0000261B
:104CC00001280FD1206901A912F071FD002805D13A
:104CD000AC490198884201D8322801D2042118E059
:104CE00069460880E068022806D0012809D0032818
:104CF0000BD0002809D017E0A06B012814D10126A1
:104D00000BE0A06B012808D00EE0A06B002811D0AA
:104D10000AE03800FEF7E8F818E06846008831003D
:104D2000FDF7F2FF002801D00321F2E73800FEF77B
:104D3000E1F80BE06846FDF7CCFF0028F4D18C4980
:104D4000684602882031380032F044FC2860002098
:104D5000FEBDFEB50400806B15000F000026012883
:104D60000DD1216901A812F057FC002802DB01983F
:104D7000FF2801D9042119E00006000E0090E06828
:104D8000022806D0012809D003280BD0002809D01A
:104D900018E0A06B012815D101260BE0A06B0128BB
:104DA00008D00FE0A06B002812D00BE03800FEF70F
:104DB0009BF819E0009831000006000EFDF7C0FFD7
:104DC000002801D00321F1E73800FEF793F80BE04B
:104DD0006846FDF7ADFF0028F4D100986AA10206ED
:104DE000120E380032F0F6FB28600020FEBDF7B549
:104DF00014000500002682B001F061FB0700A86BDB
:104E0000012819D1296901A812F0D0FB002811D17D
:104E10005C49019888420DDC64280BDB642133F087
:104E2000B8E96421484369460004000C0880798F82
:104E3000814201D9042116E0E868022806D0012841
:104E400009D003280BD0002809D017E0A86B01284F
:104E500014D101260BE0A86B012808D00EE0A86B46
:104E6000002811D00AE00398FEF73EF818E06846E3
:104E700000883100FDF77BFF002801D00321F2E715
:104E80000398FEF737F80BE06846FDF768FF002847
:104E9000F4D13749684602880398203132F09AFBF2
:104EA0002060002005B0F0BDFEB50400806B150049
:104EB0000F00002600281FD0216901A812F076FB00
:104EC000002802D10198012801D904212FE0694668
:104ED000087050204880A06B02280DD3616901A89A
:104EE00012F064FB0028F0D12A4901988842ECD8DE
:104EF0000028EAD069464880E068022806D00128E8
:104F00000BD003280FD000280DD01AE0A06B012889
:104F100001D0022815D101260DE0A06B01280AD08E
:104F2000022808D00DE0A06B002810D009E038005E
:104F3000FDF7DAFF19E000983100FDF77CFF00284B
:104F400001D00321F3E73800FDF7D4FF0DE06846F8
:104F5000FDF779FF0028F4D168460278012A1BD0BA
:104F600003493800203132F035FB28600020FEBDB7
:104F7000143800002B4F4B3D222573220000000007
:104F8000D8A80300102700002B4F4B3D2530327866
:104F900000000000FFFF000043883800F8A132F055
:104FA00019FBE2E7FEB50400806B15000F00002638
:104FB00001280CD1216901A812F0F8FA002802DBBF
:104FC0000198022801D9042118E069460870E068B8
:104FD000022806D0012809D003280BD0002809D0C8
:104FE00017E0A06B012814D101260BE0A06B01286B
:104FF00008D00EE0A06B002811D00AE03800FDF7C1
:1050000073FF17E0684600783100FDF7C0FE002806
:1050100001D00321F2E73800FDF76CFF0AE0684693
:10502000FDF7ADFE0028F4D1684602783800D7A11C
:1050300032F0D0FA2860002099E7FEB50400806BBA
:1050400015000F00002601280CD1216901A812F0DB
:10505000ADFA002802DB0198012801D9042118E0EB
:1050600069460870E068022806D0012809D00328A4
:105070000BD0002809D017E0A06B012814D101261D
:105080000BE0A06B012808D00EE0A06B002811D027
:105090000AE03800FDF728FF17E068460078310085
:1050A000FDF785FE002801D00321F2E73800FDF767
:1050B00021FF0AE06846FDF772FE0028F4D1684639
:1050C0000278B449380032F085FA286000204EE7B3
:1050D000FEB50400806B15000F00002601280CD1DE
:1050E000216901A812F062FA002802DB0198022867
:1050F00001D9042118E069460870E068022806D04A
:10510000012809D003280BD0002809D017E0A06B94
:10511000012814D101260BE0A06B012808D00EE075
:10512000A06B002816D00AE03800FDF7DDFE1CE079
:10513000684600783100FDF742FE002801D00321C7
:10514000F2E703F055FA944811F094FB3800FDF7AC
:10515000D1FE0AE06846FDF737FE0028EFD1684629
:1051600002788C49380032F035FA28600020FEE6DB
:10517000F0B50500806B14000F000026012887B0F1
:1051800011D1296906A8FDF79BFE002801D0042152
:1051900020E0069832F0C4FD0628F8D106990622D0
:1051A00004A832F0F8EDE868022806D0012809D0FA
:1051B00003280BD0002809D016E0A86B012813D1D2
:1051C00001260BE0A86B012808D00DE0A86B002891
:1051D00010D009E03800FDF787FE20E0310004A878
:1051E000FDF711FE002801D00321F3E73800FDF799
:1051F00081FE14E000206946887504A8FDF7FBFDD8
:105200000028F1D16D46A87CE97C6B7D2A7D6E4635
:105210000FC66B7C2A7C380060A132F0DBF920607D
:10522000002007B0F0BD38B50D00816B14000129D6
:1052300002D1C168012901D0032106E00069694655
:1052400012F0B5FA002804D004212800FDF74CFE26
:1052500005E00098FDF7FFFD2800FDF74BFE2060FC
:10526000002038BDF8B50D00816B1400012902D172
:10527000C168012904D004212800FDF735FE10E0A3
:105280000069694612F093FA0028F4D100980128C9
:105290000AD0002021F006FD21F075FC2800FDF762
:1052A00029FE20600020F8BD414E012021F0FAFCCB
:1052B000300021F07CF8F1E7F7B50400806B1600B0
:1052C0000027022890B002D3E068012804D011988A
:1052D0000421FDF709FE31E021690FA8FDF7F0FD7B
:1052E0000028F4D160690EA912F061FA0028EED10D
:1052F0000E9D022D01D0032D03D1A06B0328E6D310
:10530000A7693821684632F074EE0F98022D01909B
:1053100008A8057101D0032D04D1380032F000FD3A
:105320000A970B9023480C9023480D906846FCF791
:1053300032FE1849009A119832F04CF93060002082
:1053400013B0F0BD70B5C06814000E00032801D082
:10535000042138E0412011F099FE050032D04121AE
:1053600032F026EE280003F0F6F92A00300013A1EF
:1053700032F030F92060280011F094FE27E00000A0
:105380002B4F4B3D25642C25640000002B4F4B3DDB
:105390002578000034380000F98400002B4F4B3D85
:1053A0002225632563256325632563256322000089
:1053B00000240500E3720000337300002B4F4B3DC7
:1053C0002573000006213000FDF78EFD20600020CF
:1053D00070BD70B50D000100002086B0140004906F
:1053E0008A6BC868002A04D0022816D0012814D07D
:1053F0003CE0002801D0032838D11BF0CBFF4679D0
:105400000379C278817803966E460EC64378027897
:105410002800F9A132F0DEF82CE0096904A8FDF7B4
:105420004FFD002804D003212800FDF75DFD20601A
:10543000062011F02BFE060018D0049A062112F067
:1054400007F9002804DA03212800FDF74DFD08E0E4
:1054500030001BF0A3FF300006F070FF2800FDF7BE
:1054600049FD2060300011F01DFE04E003212800FA
:10547000FDF73AFD2060002006B070BD70B50D004C
:10548000816B140000298EB004D1C068002809D0B7
:10549000032807D003212800FDF726FD2060002007
:1054A0000EB070BD0AA8FCF718FEDB4B08AE717C8D
:1054B000307C1A0009930C3206AB07C3F37BB27B36
:1054C000717B307B059302AB07C3F17AB07A01910F
:1054D0000090737A327A2800D0A132F07BF8DDE7B1
:1054E00038B50D00816B1400012902D1C168012972
:1054F00004D004212800FDF7F7FC21E0006969468B
:1055000012F055F90028F4D1FCF7E4FD00280098CA
:1055100002D000280AD010E001280ED1FCF7FEFDD1
:10552000FDF742F8002012F0DEFB06E00020FCF759
:10553000F5FD12F055FC12F01FFC2800FDF7DAFC17
:105540002060002038BDF8B514000E00050000F002
:10555000B6FFA86B012804D004213000FDF7C4FC7D
:105560002DE02869694612F022F90028F4D100984C
:10557000212109018842EFD112F032FC0028EBD042
:1055800012F0EBFC0028E7D12035287F032802D059
:10559000022807D00CE0FDF77CFC020008D00320B5
:1055A000904705E0FDF781FC010001D0032088470A
:1055B00012F025FC0200A649300032F00BF8206002
:1055C0000020F8BD70B50600806B14000D000228A5
:1055D00086B001D0032106E0306904A912F0C8F8B2
:1055E00000280BD104E02800FDF77EFC206027E0B6
:1055F000706905A912F0BCF8002801D00421F2E777
:1056000004980268280093A131F0E4FF2060002094
:1056100000900190029003900EE0049A121D0492F3
:1056200012688FA1684631F0D5FF216840182060CC
:105630002800694632F0A2FB059A521E0592ECD171
:10564000002019E7FEB50500806B16000F00801ED4
:10565000082801D3032106E02869694612F088F87A
:1056600000280ED103E03800FDF73EFC0BE00024DB
:1056700013E0A0004019406901A912F079F8002850
:1056800004D00421EFE73060002070E40199009815
:1056900001600098001D641C0090A86B401EA04291
:1056A000E7D83800FDF726FCEDE7F0B50400806B85
:1056B00015000F0002288BB001D0032115E02069EE
:1056C000694612F055F800280ED1606901A912F060
:1056D0004FF8002808D10198002805D0082803D8E1
:1056E00000990818192807D904213800FDF7FCFB98
:1056F000286000200BB0F0BD002406AE08E0009842
:105700001CF0F4FF610070520098401C641C009073
:1057100001988442F3D36846028B5349380031F034
:1057200059FFB61C28600CE03288B61C4FA102A8B5
:1057300031F050FF296840182860380002A932F083
:105740001DFB0198401E0190EED1D3E7F7B507008D
:10575000806B1600801E082886B001D3032106E066
:105760003869694612F004F8002820D103E0079850
:10577000FDF7BAFB31E0002425000DE0A800C019B8
:10578000406905A911F0F4FF002810D162000598C6
:10579000641C01A96D1C8852B86B401EA842EDD84C
:1057A000601E082803D200980119192901D9042183
:1057B000DDE74000002501AF009009E06900795A5B
:1057C000000408431CF0C6FF0098801C6D1C00906C
:1057D000A542F3D30798FDF78DFB3060002009B098
:1057E000F0BDF0B50500806B14000F0002288FB0EB
:1057F00040D2032145E000002B4F4B3D253032784D
:10580000253032782530327825303278253032789C
:105810002530327800000000DEA803002B4F4B3DFE
:10582000256325782E253032782E253032782E25A6
:10583000303278253032782C256325782E25303289
:10584000782E253032784020257320257300000003
:10585000343800002B4F4B3D2530387800000000D5
:105860002C25303878000000884500002C25303485
:105870007800000028690DA911F07AFF00281BD1DB
:1058800004E03800FDF730FB206032E068690CA9C5
:1058900011F06EFF00280FD10C9D082D0CD8002DA3
:1058A0000AD02021684632F0A4EB0D98AA00694680
:1058B00006F08AFD002801D00421E2E7FD49009AA4
:1058C000380031F087FE01256E4620600EE0F94970
:1058D000A80032580C3108A831F07CFE380008A925
:1058E00032F04CFA206809306D1C20600C9885421B
:1058F000EDD300200FB0F0BDF7B5856B07001600A3
:10590000A81E08288CB001D3032107E038696D1E5A
:1059100008A911F02DFF002820D103E00D98FDF714
:10592000E3FA20E02021684632F062EB00240CE02C
:10593000A0000A90C019406909A911F019FF0A983E
:10594000694640180999641C0160AC42F0D308987C
:10595000AA00694606F0BAFD002801D00421DDE75F
:105960000D98FDF7C7FA30600020C3E7F7B51500C2
:1059700007009CB01CF039F90400B86BCE4E00282B
:1059800002D0012843D047E0F868002801D003285E
:1059900042D10021625C0020335C9A4201D1605404
:1059A00002E0401C1F28F7DB491C1D29F2DB607E4A
:1059B000A17E237FE27E17AF0FC7607DA17D237E8E
:1059C000E27D13AF0FC7607CA17C237DE27C0FAF2B
:1059D0000FC7607BA17B237CE27B0BAF0FC7607A94
:1059E000A17A237BE27A07AF0FC76079A179237A86
:1059F000E27903AF0FC7A078E17822796B4607C33D
:105A000063782278AD491D9831F0E4FD2CE0F86808
:105A1000012803D0022801D0032107E03A691D21A3
:105A2000200011F015FE002804DA04211D98FDF76E
:105A30005BFA19E00020215C1E29F6D8715C215424
:105A4000401C1D28F7DBF86802280AD10C2221002F
:105A5000242006F065FC210011220C313D2006F0C7
:105A60005FFC1D98FDF746FA286000201FB0F0BDCE
:105A700070B50D00816B1400002988B004D1C06896
:105A8000002809D0032807D003212800FDF72CFAAD
:105A90002060002008B070BD04A8FCF71EFB6E4615
:105AA000737D327DF17CB07C03936B4607C38149E3
:105AB000737C327C5C39280031F08CFDE8E7F7B567
:105AC000002188B00791816B1600002902D00129BE
:105AD00016D01AE0C068002801D0032815D104A808
:105AE000FCF70EFB6C46A07CE17C637D227D6D465D
:105AF0000FC5637C227C099871A131F06BFD32E007
:105B0000C168022903D0012901D0032120E00169E5
:105B100007A8FDF7D5F907980125007869462C00FC
:105B200004AF087408E00798005D2E2803D011F038
:105B300035FD78556D1C641C079832F0F1F8A042D1
:105B4000F1D86846007C562806D0762804D0042177
:105B50000998FDF7C9F906E004A8FCF7D8FA5D49F1
:105B6000099831F037FD30600020C3E5F0B505003D
:105B7000806B14000F00012889B002D002281FD0CA
:105B800023E0E868002801D003281ED1286908A96D
:105B900011F00DFE002802D1089D1A2D01DD04210F
:105BA00014E02021684632F024EA2A0000206946E9
:105BB00006F0ACFB484938006A4631F00BFD25E0A1
:105BC000E868012806D0022804D003213800FDF738
:105BD0008BF91BE0286908A911F0E9FD0028DED146
:105BE000089E1A2EDBDC2021684632F002EA6A6940
:105BF0003100684611F02CFD0028D0DB089A2420E3
:105C0000694606F08DFB3800FDF774F9206000202E
:105C1000E5E57CB51400826B0D00002A02D0012A54
:105C200010D012E0C068002801D003280DD101A9CE
:105C30006846FCF717FC684602782849280031F0CE
:105C4000C9FC1FE0C168012901D003210CE00069F3
:105C5000694611F0ACFD002805D16846007800289F
:105C600001D00E2804D904212800FDF73DF909E0F0
:105C700000F083FB68460078401E1FF033F82800D0
:105C8000FDF738F9206000207CBDF0B5070085B035
:105C90000A200390642000900125002002950190C5
:105CA000B86B14000E0005281AD004213000FDF74F
:105CB0001BF9D8E054580000E10A040044A903008D
:105CC0002B4F4B3D256325642E256425642E2564CA
:105CD00025640000D0320000BC53000034380000BE
:105CE000386902A911F044FD0028DED1786903A9C2
:105CF00011F03EFD0028D8D1B869694611F038FD91
:105D00000028D2D100981828CFD3192189018842C0
:105D1000CBD8F86901A911F02BFD0028C5D1019855
:105D20001E28C2D8386A04A911F022FD0028BCD16F
:105D3000FE4A0498811A90425ED028DCFC4A811AFF
:105D4000904249D012DC04283ED008DC00283BD029
:105D500001283BD002283BD0032833D13AE0052864
:105D600034D0062834D0FF3801382BE004293BD04A
:105D700006DC012932D0022932D0032922D131E0B8
:105D8000052933D0062933D0FF291BD132E0082959
:105D900042D007DC0B0034F0D8EB0815313335372F
:105DA000393B3D1512293FD006DC0F2936D010298A
:105DB00036D0112906D135E0132937D0142937D030
:105DC000312937D0042736E0012734E0022732E0BA
:105DD000032730E000272EE005272CE006272AE0E5
:105DE000072728E0082726E0092724E00A2722E0E1
:105DF0000B2720E00C271EE00D271CE00E271AE0E1
:105E00000F2718E0102716E0112714E0122712E0E0
:105E1000132710E014270EE015270CE016270AE0E0
:105E2000172708E0182706E0192704E01A2702E0E0
:105E30001B2700E01C2700F0A0FABE481C2132F00E
:105E4000D8E8BC480399C16000990161BA49019A38
:105E5000895C8761056041610299816020F079F871
:105E60003000FDF747F82060002005B0F0BD70B5A8
:105E7000B04D0023140008002B60FDF73BF82060B4
:105E8000002070BD10B51400AA4A08005268AB4942
:105E900031F0A0FB2060002010BDF8B501250E00F8
:105EA0000095816B1400012904D004213000FDF716
:105EB0001BF81DE00069694611F05AFC0028F4D176
:105EC000009A002AF1D00E2AEFD800F056FA009876
:105ED000401E1EF007FF3000FDF70CF820609848C8
